{
  "address": "0xABfE99d4cF78E5E2823bccf02a6687face5D99cB",
  "abi": [
    {
      "anonymous": false,
      "inputs": [
        {
          "components": [
            {
              "internalType": "uint256",
              "name": "id",
              "type": "uint256"
            },
            {
              "internalType": "string",
              "name": "hash",
              "type": "string"
            },
            {
              "internalType": "string",
              "name": "description",
              "type": "string"
            },
            {
              "internalType": "string",
              "name": "clickThru",
              "type": "string"
            },
            {
              "internalType": "address payable",
              "name": "owner",
              "type": "address"
            }
          ],
          "indexed": false,
          "internalType": "struct DCLBillboard.Banner",
          "name": "_banner",
          "type": "tuple"
        }
      ],
      "name": "BannerCreated",
      "type": "event"
    },
    {
      "anonymous": false,
      "inputs": [
        {
          "components": [
            {
              "internalType": "uint256",
              "name": "id",
              "type": "uint256"
            },
            {
              "internalType": "string",
              "name": "description",
              "type": "string"
            },
            {
              "internalType": "string",
              "name": "parcel",
              "type": "string"
            },
            {
              "internalType": "string",
              "name": "realm",
              "type": "string"
            },
            {
              "internalType": "uint256",
              "name": "rate",
              "type": "uint256"
            },
            {
              "internalType": "address payable",
              "name": "owner",
              "type": "address"
            }
          ],
          "indexed": false,
          "internalType": "struct DCLBillboard.Billboard",
          "name": "_billboard",
          "type": "tuple"
        }
      ],
      "name": "BillboardCreated",
      "type": "event"
    },
    {
      "anonymous": false,
      "inputs": [
        {
          "components": [
            {
              "internalType": "uint256",
              "name": "id",
              "type": "uint256"
            },
            {
              "internalType": "string",
              "name": "description",
              "type": "string"
            },
            {
              "internalType": "uint256",
              "name": "bannerId",
              "type": "uint256"
            },
            {
              "internalType": "uint256",
              "name": "billboardId",
              "type": "uint256"
            },
            {
              "internalType": "uint256",
              "name": "rate",
              "type": "uint256"
            },
            {
              "internalType": "uint256",
              "name": "startDate",
              "type": "uint256"
            },
            {
              "internalType": "uint256",
              "name": "endDate",
              "type": "uint256"
            }
          ],
          "indexed": false,
          "internalType": "struct DCLBillboard.Flight",
          "name": "_flight",
          "type": "tuple"
        }
      ],
      "name": "FlightCreated",
      "type": "event"
    },
    {
      "inputs": [],
      "name": "bannerCount",
      "outputs": [
        {
          "internalType": "uint256",
          "name": "",
          "type": "uint256"
        }
      ],
      "stateMutability": "view",
      "type": "function"
    },
    {
      "inputs": [
        {
          "internalType": "uint256",
          "name": "",
          "type": "uint256"
        }
      ],
      "name": "banners",
      "outputs": [
        {
          "internalType": "uint256",
          "name": "id",
          "type": "uint256"
        },
        {
          "internalType": "string",
          "name": "hash",
          "type": "string"
        },
        {
          "internalType": "string",
          "name": "description",
          "type": "string"
        },
        {
          "internalType": "string",
          "name": "clickThru",
          "type": "string"
        },
        {
          "internalType": "address payable",
          "name": "owner",
          "type": "address"
        }
      ],
      "stateMutability": "view",
      "type": "function"
    },
    {
      "inputs": [],
      "name": "billboardCount",
      "outputs": [
        {
          "internalType": "uint256",
          "name": "",
          "type": "uint256"
        }
      ],
      "stateMutability": "view",
      "type": "function"
    },
    {
      "inputs": [
        {
          "internalType": "uint256",
          "name": "",
          "type": "uint256"
        }
      ],
      "name": "billboards",
      "outputs": [
        {
          "internalType": "uint256",
          "name": "id",
          "type": "uint256"
        },
        {
          "internalType": "string",
          "name": "description",
          "type": "string"
        },
        {
          "internalType": "string",
          "name": "parcel",
          "type": "string"
        },
        {
          "internalType": "string",
          "name": "realm",
          "type": "string"
        },
        {
          "internalType": "uint256",
          "name": "rate",
          "type": "uint256"
        },
        {
          "internalType": "address payable",
          "name": "owner",
          "type": "address"
        }
      ],
      "stateMutability": "view",
      "type": "function"
    },
    {
      "inputs": [
        {
          "internalType": "string",
          "name": "_bannerHash",
          "type": "string"
        },
        {
          "internalType": "string",
          "name": "_description",
          "type": "string"
        },
        {
          "internalType": "string",
          "name": "_clickThru",
          "type": "string"
        }
      ],
      "name": "createBanner",
      "outputs": [],
      "stateMutability": "nonpayable",
      "type": "function"
    },
    {
      "inputs": [
        {
          "internalType": "string",
          "name": "_description",
          "type": "string"
        },
        {
          "internalType": "string",
          "name": "_parcel",
          "type": "string"
        },
        {
          "internalType": "string",
          "name": "_realm",
          "type": "string"
        },
        {
          "internalType": "uint256",
          "name": "_rate",
          "type": "uint256"
        }
      ],
      "name": "createBillboard",
      "outputs": [],
      "stateMutability": "nonpayable",
      "type": "function"
    },
    {
      "inputs": [
        {
          "internalType": "string",
          "name": "_description",
          "type": "string"
        },
        {
          "internalType": "uint256",
          "name": "_bannerId",
          "type": "uint256"
        },
        {
          "internalType": "uint256",
          "name": "_billboardId",
          "type": "uint256"
        },
        {
          "internalType": "uint256",
          "name": "_rate",
          "type": "uint256"
        },
        {
          "internalType": "uint256",
          "name": "_startDate",
          "type": "uint256"
        },
        {
          "internalType": "uint256",
          "name": "_endDate",
          "type": "uint256"
        }
      ],
      "name": "createFlight",
      "outputs": [],
      "stateMutability": "nonpayable",
      "type": "function"
    },
    {
      "inputs": [],
      "name": "flightCount",
      "outputs": [
        {
          "internalType": "uint256",
          "name": "",
          "type": "uint256"
        }
      ],
      "stateMutability": "view",
      "type": "function"
    },
    {
      "inputs": [
        {
          "internalType": "uint256",
          "name": "",
          "type": "uint256"
        }
      ],
      "name": "flights",
      "outputs": [
        {
          "internalType": "uint256",
          "name": "id",
          "type": "uint256"
        },
        {
          "internalType": "string",
          "name": "description",
          "type": "string"
        },
        {
          "internalType": "uint256",
          "name": "bannerId",
          "type": "uint256"
        },
        {
          "internalType": "uint256",
          "name": "billboardId",
          "type": "uint256"
        },
        {
          "internalType": "uint256",
          "name": "rate",
          "type": "uint256"
        },
        {
          "internalType": "uint256",
          "name": "startDate",
          "type": "uint256"
        },
        {
          "internalType": "uint256",
          "name": "endDate",
          "type": "uint256"
        }
      ],
      "stateMutability": "view",
      "type": "function"
    },
    {
      "inputs": [],
      "name": "name",
      "outputs": [
        {
          "internalType": "string",
          "name": "",
          "type": "string"
        }
      ],
      "stateMutability": "view",
      "type": "function"
    }
  ],
  "transactionHash": "0xdf1fcaffd189ecaa0a6a412d950e199ef0121a65d4cf3d1662bf6b7fbd07ad17",
  "args": [],
  "solcInputHash": "77d75c947763836817ff53f6f11c7680",
  "bytecode": "0x60c0604052600c60808190526b1110d3109a5b1b189bd85c9960a21b60a09081526200002f916000919062000053565b506000600155600060035560006005553480156200004c57600080fd5b5062000136565b8280546200006190620000f9565b90600052602060002090601f016020900481019282620000855760008555620000d0565b82601f10620000a057805160ff1916838001178555620000d0565b82800160010185558215620000d0579182015b82811115620000d0578251825591602001919060010190620000b3565b50620000de929150620000e2565b5090565b5b80821115620000de5760008155600101620000e3565b600181811c908216806200010e57607f821691505b602082108114156200013057634e487b7160e01b600052602260045260246000fd5b50919050565b61130480620001466000396000f3fe608060405234801561001057600080fd5b506004361061008e5760003560e01c806306fdde031461009357806315ccf70f146100b15780631bc09567146100d75780632128e0ac146100ee5780635ee2bf0c146101135780636e2c5dca1461012857806388cb6a1e1461013b5780638f7695ef1461014e578063c177f60f14610172578063fd17a53e1461017b575b600080fd5b61009b610184565b6040516100a89190610f4c565b60405180910390f35b6100c46100bf366004610ee9565b610212565b6040516100a89796959493929190611213565b6100e060055481565b6040519081526020016100a8565b6101016100fc366004610ee9565b6102d5565b6040516100a8969594939291906111b0565b610126610121366004610e87565b6104ac565b005b610126610136366004610d79565b6106fa565b610126610149366004610dfc565b61088a565b61016161015c366004610ee9565b610a8a565b6040516100a8959493929190611156565b6100e060015481565b6100e060035481565b6000805461019190611256565b80601f01602080910402602001604051908101604052809291908181526020018280546101bd90611256565b801561020a5780601f106101df5761010080835404028352916020019161020a565b820191906000526020600020905b8154815290600101906020018083116101ed57829003601f168201915b505050505081565b6006602052600090815260409020805460018201805491929161023490611256565b80601f016020809104026020016040519081016040528092919081815260200182805461026090611256565b80156102ad5780601f10610282576101008083540402835291602001916102ad565b820191906000526020600020905b81548152906001019060200180831161029057829003601f168201915b5050505050908060020154908060030154908060040154908060050154908060060154905087565b600460205260009081526040902080546001820180549192916102f790611256565b80601f016020809104026020016040519081016040528092919081815260200182805461032390611256565b80156103705780601f1061034557610100808354040283529160200191610370565b820191906000526020600020905b81548152906001019060200180831161035357829003601f168201915b50505050509080600201805461038590611256565b80601f01602080910402602001604051908101604052809291908181526020018280546103b190611256565b80156103fe5780601f106103d3576101008083540402835291602001916103fe565b820191906000526020600020905b8154815290600101906020018083116103e157829003601f168201915b50505050509080600301805461041390611256565b80601f016020809104026020016040519081016040528092919081815260200182805461043f90611256565b801561048c5780601f106104615761010080835404028352916020019161048c565b820191906000526020600020905b81548152906001019060200180831161046f57829003601f168201915b5050505060048301546005909301549192916001600160a01b0316905086565b60008651116104d65760405162461bcd60e51b81526004016104cd90610fb1565b60405180910390fd5b6000851161051a5760405162461bcd60e51b815260206004820152601160248201527010985b9b995c9259081c995c5d5a5c9959607a1b60448201526064016104cd565b600084116105615760405162461bcd60e51b8152602060048201526014602482015273109a5b1b189bd85c991259081c995c5d5a5c995960621b60448201526064016104cd565b600083116105815760405162461bcd60e51b81526004016104cd90610f66565b600082116105c65760405162461bcd60e51b815260206004820152601260248201527114dd185c9d11185d19481c995c5d5a5c995960721b60448201526064016104cd565b600081116106095760405162461bcd60e51b815260206004820152601060248201526f115b9911185d19481c995c5d5a5c995960821b60448201526064016104cd565b6005805490600061061983611291565b90915550506040805160e08101825260055480825260208083018a81528385018a9052606084018990526080840188905260a0840187905260c08401869052600092835260068252939091208251815592518051929384939092610684926001850192910190610c5a565b5060408201518160020155606082015181600301556080820151816004015560a0820151816005015560c082015181600601559050507f7460f7c1511eb6d0788fa9108d6a8f162fda3c7e8afd79a42d58542263fe4dad816040516106e991906110f1565b60405180910390a150505050505050565b600082511161071b5760405162461bcd60e51b81526004016104cd90610fb1565b60008351116107625760405162461bcd60e51b815260206004820152601360248201527210985b9b995c92185cda081c995c5d5a5c9959606a1b60448201526064016104cd565b3361077f5760405162461bcd60e51b81526004016104cd90610f8d565b6001805490600061078f83611291565b90915550506040805160a081018252600180548083526020808401888152848601889052606085018790523360808601526000928352600282529490912083518155935180519394859490936107ea93908501920190610c5a565b5060408201518051610806916002840191602090910190610c5a565b5060608201518051610822916003840191602090910190610c5a565b5060809190910151600490910180546001600160a01b0319166001600160a01b039092169190911790556040517ff5ed64965753f2409fb10f8073dca2b2de4e1e4138e042ffe3af12903f55702b9061087c908390610fdf565b60405180910390a150505050565b60008451116108ab5760405162461bcd60e51b81526004016104cd90610fb1565b60008351116108ee5760405162461bcd60e51b815260206004820152600f60248201526e14185c98d95b081c995c5d5a5c9959608a1b60448201526064016104cd565b60008251116109305760405162461bcd60e51b815260206004820152600e60248201526d1499585b1b481c995c5d5a5c995960921b60448201526064016104cd565b600081116109505760405162461bcd60e51b81526004016104cd90610f66565b3361096d5760405162461bcd60e51b81526004016104cd90610f8d565b6003805490600061097d83611291565b90915550506040805160c081018252600354808252602080830188815283850188905260608401879052608084018690523360a08501526000928352600482529390912082518155925180519293849390926109e0926001850192910190610c5a565b50604082015180516109fc916002840191602090910190610c5a565b5060608201518051610a18916003840191602090910190610c5a565b506080820151600482015560a090910151600590910180546001600160a01b0319166001600160a01b039092169190911790556040517f2795f5b02249d1656662389a22f40816887a9293bb3f2b8f950d678db35880e890610a7b908390611063565b60405180910390a15050505050565b60026020526000908152604090208054600182018054919291610aac90611256565b80601f0160208091040260200160405190810160405280929190818152602001828054610ad890611256565b8015610b255780601f10610afa57610100808354040283529160200191610b25565b820191906000526020600020905b815481529060010190602001808311610b0857829003601f168201915b505050505090806002018054610b3a90611256565b80601f0160208091040260200160405190810160405280929190818152602001828054610b6690611256565b8015610bb35780601f10610b8857610100808354040283529160200191610bb3565b820191906000526020600020905b815481529060010190602001808311610b9657829003601f168201915b505050505090806003018054610bc890611256565b80601f0160208091040260200160405190810160405280929190818152602001828054610bf490611256565b8015610c415780601f10610c1657610100808354040283529160200191610c41565b820191906000526020600020905b815481529060010190602001808311610c2457829003601f168201915b505050600490930154919250506001600160a01b031685565b828054610c6690611256565b90600052602060002090601f016020900481019282610c885760008555610cce565b82601f10610ca157805160ff1916838001178555610cce565b82800160010185558215610cce579182015b82811115610cce578251825591602001919060010190610cb3565b50610cda929150610cde565b5090565b5b80821115610cda5760008155600101610cdf565b600082601f830112610d03578081fd5b81356001600160401b0380821115610d1d57610d1d6112b8565b604051601f8301601f19908116603f01168101908282118183101715610d4557610d456112b8565b81604052838152866020858801011115610d5d578485fd5b8360208701602083013792830160200193909352509392505050565b600080600060608486031215610d8d578283fd5b83356001600160401b0380821115610da3578485fd5b610daf87838801610cf3565b94506020860135915080821115610dc4578384fd5b610dd087838801610cf3565b93506040860135915080821115610de5578283fd5b50610df286828701610cf3565b9150509250925092565b60008060008060808587031215610e11578081fd5b84356001600160401b0380821115610e27578283fd5b610e3388838901610cf3565b95506020870135915080821115610e48578283fd5b610e5488838901610cf3565b94506040870135915080821115610e69578283fd5b50610e7687828801610cf3565b949793965093946060013593505050565b60008060008060008060c08789031215610e9f578182fd5b86356001600160401b03811115610eb4578283fd5b610ec089828a01610cf3565b9960208901359950604089013598606081013598506080810135975060a0013595509350505050565b600060208284031215610efa578081fd5b5035919050565b60008151808452815b81811015610f2657602081850181015186830182015201610f0a565b81811115610f375782602083870101525b50601f01601f19169290920160200192915050565b602081526000610f5f6020830184610f01565b9392505050565b6020808252600d908201526c14985d19481c995c5d5a5c9959609a1b604082015260600190565b6020808252600a90820152692130b21029b2b73232b960b11b604082015260600190565b60208082526014908201527311195cd8dc9a5c1d1a5bdb881c995c5d5a5c995960621b604082015260600190565b60208152815160208201526000602083015160a0604084015261100560c0840182610f01565b90506040840151601f19808584030160608601526110238383610f01565b92506060860151915080858403016080860152506110418282610f01565b608095909501516001600160a01b031660a09490940193909352509192915050565b60208152815160208201526000602083015160c0604084015261108960e0840182610f01565b90506040840151601f19808584030160608601526110a78383610f01565b92506060860151915080858403016080860152506110c58282610f01565b608086015160a086810191909152909501516001600160a01b031660c090940193909352509192915050565b60208152815160208201526000602083015160e06040840152611118610100840182610f01565b90506040840151606084015260608401516080840152608084015160a084015260a084015160c084015260c084015160e08401528091505092915050565b85815260a06020820152600061116f60a0830187610f01565b82810360408401526111818187610f01565b905082810360608401526111958186610f01565b91505060018060a01b03831660808301529695505050505050565b86815260c0602082015260006111c960c0830188610f01565b82810360408401526111db8188610f01565b905082810360608401526111ef8187610f01565b608084019590955250506001600160a01b039190911660a090910152949350505050565b87815260e06020820152600061122c60e0830189610f01565b6040830197909752506060810194909452608084019290925260a083015260c09091015292915050565b600181811c9082168061126a57607f821691505b6020821081141561128b57634e487b7160e01b600052602260045260246000fd5b50919050565b60006000198214156112b157634e487b7160e01b81526011600452602481fd5b5060010190565b634e487b7160e01b600052604160045260246000fdfea2646970667358221220abe5f0bba9b1b800c2eb86e967c116390c87e233c08979277cd7aff3d45d9b7f64736f6c63430008040033",
  "devdoc": {
    "kind": "dev",
    "methods": {},
    "version": 1
  },
  "userdoc": {
    "kind": "user",
    "methods": {},
    "version": 1
  },
  "storageLayout": {
    "storage": [
      {
        "astId": 5,
        "contract": "contracts/DCLBillboard.sol:DCLBillboard",
        "label": "name",
        "offset": 0,
        "slot": "0",
        "type": "t_string_storage"
      },
      {
        "astId": 8,
        "contract": "contracts/DCLBillboard.sol:DCLBillboard",
        "label": "bannerCount",
        "offset": 0,
        "slot": "1",
        "type": "t_uint256"
      },
      {
        "astId": 13,
        "contract": "contracts/DCLBillboard.sol:DCLBillboard",
        "label": "banners",
        "offset": 0,
        "slot": "2",
        "type": "t_mapping(t_uint256,t_struct(Banner)24_storage)"
      },
      {
        "astId": 32,
        "contract": "contracts/DCLBillboard.sol:DCLBillboard",
        "label": "billboardCount",
        "offset": 0,
        "slot": "3",
        "type": "t_uint256"
      },
      {
        "astId": 37,
        "contract": "contracts/DCLBillboard.sol:DCLBillboard",
        "label": "billboards",
        "offset": 0,
        "slot": "4",
        "type": "t_mapping(t_uint256,t_struct(Billboard)50_storage)"
      },
      {
        "astId": 58,
        "contract": "contracts/DCLBillboard.sol:DCLBillboard",
        "label": "flightCount",
        "offset": 0,
        "slot": "5",
        "type": "t_uint256"
      },
      {
        "astId": 63,
        "contract": "contracts/DCLBillboard.sol:DCLBillboard",
        "label": "flights",
        "offset": 0,
        "slot": "6",
        "type": "t_mapping(t_uint256,t_struct(Flight)78_storage)"
      }
    ],
    "types": {
      "t_address_payable": {
        "encoding": "inplace",
        "label": "address payable",
        "numberOfBytes": "20"
      },
      "t_mapping(t_uint256,t_struct(Banner)24_storage)": {
        "encoding": "mapping",
        "key": "t_uint256",
        "label": "mapping(uint256 => struct DCLBillboard.Banner)",
        "numberOfBytes": "32",
        "value": "t_struct(Banner)24_storage"
      },
      "t_mapping(t_uint256,t_struct(Billboard)50_storage)": {
        "encoding": "mapping",
        "key": "t_uint256",
        "label": "mapping(uint256 => struct DCLBillboard.Billboard)",
        "numberOfBytes": "32",
        "value": "t_struct(Billboard)50_storage"
      },
      "t_mapping(t_uint256,t_struct(Flight)78_storage)": {
        "encoding": "mapping",
        "key": "t_uint256",
        "label": "mapping(uint256 => struct DCLBillboard.Flight)",
        "numberOfBytes": "32",
        "value": "t_struct(Flight)78_storage"
      },
      "t_string_storage": {
        "encoding": "bytes",
        "label": "string",
        "numberOfBytes": "32"
      },
      "t_struct(Banner)24_storage": {
        "encoding": "inplace",
        "label": "struct DCLBillboard.Banner",
        "members": [
          {
            "astId": 15,
            "contract": "contracts/DCLBillboard.sol:DCLBillboard",
            "label": "id",
            "offset": 0,
            "slot": "0",
            "type": "t_uint256"
          },
          {
            "astId": 17,
            "contract": "contracts/DCLBillboard.sol:DCLBillboard",
            "label": "hash",
            "offset": 0,
            "slot": "1",
            "type": "t_string_storage"
          },
          {
            "astId": 19,
            "contract": "contracts/DCLBillboard.sol:DCLBillboard",
            "label": "description",
            "offset": 0,
            "slot": "2",
            "type": "t_string_storage"
          },
          {
            "astId": 21,
            "contract": "contracts/DCLBillboard.sol:DCLBillboard",
            "label": "clickThru",
            "offset": 0,
            "slot": "3",
            "type": "t_string_storage"
          },
          {
            "astId": 23,
            "contract": "contracts/DCLBillboard.sol:DCLBillboard",
            "label": "owner",
            "offset": 0,
            "slot": "4",
            "type": "t_address_payable"
          }
        ],
        "numberOfBytes": "160"
      },
      "t_struct(Billboard)50_storage": {
        "encoding": "inplace",
        "label": "struct DCLBillboard.Billboard",
        "members": [
          {
            "astId": 39,
            "contract": "contracts/DCLBillboard.sol:DCLBillboard",
            "label": "id",
            "offset": 0,
            "slot": "0",
            "type": "t_uint256"
          },
          {
            "astId": 41,
            "contract": "contracts/DCLBillboard.sol:DCLBillboard",
            "label": "description",
            "offset": 0,
            "slot": "1",
            "type": "t_string_storage"
          },
          {
            "astId": 43,
            "contract": "contracts/DCLBillboard.sol:DCLBillboard",
            "label": "parcel",
            "offset": 0,
            "slot": "2",
            "type": "t_string_storage"
          },
          {
            "astId": 45,
            "contract": "contracts/DCLBillboard.sol:DCLBillboard",
            "label": "realm",
            "offset": 0,
            "slot": "3",
            "type": "t_string_storage"
          },
          {
            "astId": 47,
            "contract": "contracts/DCLBillboard.sol:DCLBillboard",
            "label": "rate",
            "offset": 0,
            "slot": "4",
            "type": "t_uint256"
          },
          {
            "astId": 49,
            "contract": "contracts/DCLBillboard.sol:DCLBillboard",
            "label": "owner",
            "offset": 0,
            "slot": "5",
            "type": "t_address_payable"
          }
        ],
        "numberOfBytes": "192"
      },
      "t_struct(Flight)78_storage": {
        "encoding": "inplace",
        "label": "struct DCLBillboard.Flight",
        "members": [
          {
            "astId": 65,
            "contract": "contracts/DCLBillboard.sol:DCLBillboard",
            "label": "id",
            "offset": 0,
            "slot": "0",
            "type": "t_uint256"
          },
          {
            "astId": 67,
            "contract": "contracts/DCLBillboard.sol:DCLBillboard",
            "label": "description",
            "offset": 0,
            "slot": "1",
            "type": "t_string_storage"
          },
          {
            "astId": 69,
            "contract": "contracts/DCLBillboard.sol:DCLBillboard",
            "label": "bannerId",
            "offset": 0,
            "slot": "2",
            "type": "t_uint256"
          },
          {
            "astId": 71,
            "contract": "contracts/DCLBillboard.sol:DCLBillboard",
            "label": "billboardId",
            "offset": 0,
            "slot": "3",
            "type": "t_uint256"
          },
          {
            "astId": 73,
            "contract": "contracts/DCLBillboard.sol:DCLBillboard",
            "label": "rate",
            "offset": 0,
            "slot": "4",
            "type": "t_uint256"
          },
          {
            "astId": 75,
            "contract": "contracts/DCLBillboard.sol:DCLBillboard",
            "label": "startDate",
            "offset": 0,
            "slot": "5",
            "type": "t_uint256"
          },
          {
            "astId": 77,
            "contract": "contracts/DCLBillboard.sol:DCLBillboard",
            "label": "endDate",
            "offset": 0,
            "slot": "6",
            "type": "t_uint256"
          }
        ],
        "numberOfBytes": "224"
      },
      "t_uint256": {
        "encoding": "inplace",
        "label": "uint256",
        "numberOfBytes": "32"
      }
    }
  }
}