{
  "address": "0xABfE99d4cF78E5E2823bccf02a6687face5D99cB",
  "abi": [
    {
      "anonymous": false,
      "inputs": [
        {
          "components": [
            {
              "internalType": "uint256",
              "name": "id",
              "type": "uint256"
            },
            {
              "internalType": "string",
              "name": "hash",
              "type": "string"
            },
            {
              "internalType": "string",
              "name": "description",
              "type": "string"
            },
            {
              "internalType": "string",
              "name": "clickThru",
              "type": "string"
            },
            {
              "internalType": "address payable",
              "name": "owner",
              "type": "address"
            }
          ],
          "indexed": false,
          "internalType": "struct DCLBillboard.Banner",
          "name": "_banner",
          "type": "tuple"
        }
      ],
      "name": "BannerCreated",
      "type": "event"
    },
    {
      "anonymous": false,
      "inputs": [
        {
          "components": [
            {
              "internalType": "uint256",
              "name": "id",
              "type": "uint256"
            },
            {
              "internalType": "string",
              "name": "position",
              "type": "string"
            },
            {
              "internalType": "string",
              "name": "description",
              "type": "string"
            },
            {
              "internalType": "string",
              "name": "realm",
              "type": "string"
            },
            {
              "internalType": "uint256",
              "name": "rate",
              "type": "uint256"
            },
            {
              "internalType": "address payable",
              "name": "owner",
              "type": "address"
            }
          ],
          "indexed": false,
          "internalType": "struct DCLBillboard.Billboard",
          "name": "_billboard",
          "type": "tuple"
        }
      ],
      "name": "BillboardCreated",
      "type": "event"
    },
    {
      "anonymous": false,
      "inputs": [
        {
          "components": [
            {
              "internalType": "uint256",
              "name": "id",
              "type": "uint256"
            },
            {
              "internalType": "string",
              "name": "parcel",
              "type": "string"
            },
            {
              "internalType": "string",
              "name": "description",
              "type": "string"
            },
            {
              "internalType": "uint256",
              "name": "rate",
              "type": "uint256"
            },
            {
              "internalType": "uint256",
              "name": "startDate",
              "type": "uint256"
            },
            {
              "internalType": "uint256",
              "name": "endDate",
              "type": "uint256"
            }
          ],
          "indexed": false,
          "internalType": "struct DCLBillboard.Flight",
          "name": "_flight",
          "type": "tuple"
        }
      ],
      "name": "FlightCreated",
      "type": "event"
    },
    {
      "inputs": [],
      "name": "bannerCount",
      "outputs": [
        {
          "internalType": "uint256",
          "name": "",
          "type": "uint256"
        }
      ],
      "stateMutability": "view",
      "type": "function"
    },
    {
      "inputs": [
        {
          "internalType": "uint256",
          "name": "",
          "type": "uint256"
        }
      ],
      "name": "banners",
      "outputs": [
        {
          "internalType": "uint256",
          "name": "id",
          "type": "uint256"
        },
        {
          "internalType": "string",
          "name": "hash",
          "type": "string"
        },
        {
          "internalType": "string",
          "name": "description",
          "type": "string"
        },
        {
          "internalType": "string",
          "name": "clickThru",
          "type": "string"
        },
        {
          "internalType": "address payable",
          "name": "owner",
          "type": "address"
        }
      ],
      "stateMutability": "view",
      "type": "function"
    },
    {
      "inputs": [],
      "name": "billboardCount",
      "outputs": [
        {
          "internalType": "uint256",
          "name": "",
          "type": "uint256"
        }
      ],
      "stateMutability": "view",
      "type": "function"
    },
    {
      "inputs": [
        {
          "internalType": "uint256",
          "name": "",
          "type": "uint256"
        }
      ],
      "name": "billboards",
      "outputs": [
        {
          "internalType": "uint256",
          "name": "id",
          "type": "uint256"
        },
        {
          "internalType": "string",
          "name": "position",
          "type": "string"
        },
        {
          "internalType": "string",
          "name": "description",
          "type": "string"
        },
        {
          "internalType": "string",
          "name": "realm",
          "type": "string"
        },
        {
          "internalType": "uint256",
          "name": "rate",
          "type": "uint256"
        },
        {
          "internalType": "address payable",
          "name": "owner",
          "type": "address"
        }
      ],
      "stateMutability": "view",
      "type": "function"
    },
    {
      "inputs": [],
      "name": "flightCount",
      "outputs": [
        {
          "internalType": "uint256",
          "name": "",
          "type": "uint256"
        }
      ],
      "stateMutability": "view",
      "type": "function"
    },
    {
      "inputs": [
        {
          "internalType": "uint256",
          "name": "",
          "type": "uint256"
        }
      ],
      "name": "flights",
      "outputs": [
        {
          "internalType": "uint256",
          "name": "id",
          "type": "uint256"
        },
        {
          "internalType": "string",
          "name": "parcel",
          "type": "string"
        },
        {
          "internalType": "string",
          "name": "description",
          "type": "string"
        },
        {
          "internalType": "uint256",
          "name": "rate",
          "type": "uint256"
        },
        {
          "internalType": "uint256",
          "name": "startDate",
          "type": "uint256"
        },
        {
          "internalType": "uint256",
          "name": "endDate",
          "type": "uint256"
        }
      ],
      "stateMutability": "view",
      "type": "function"
    },
    {
      "inputs": [],
      "name": "name",
      "outputs": [
        {
          "internalType": "string",
          "name": "",
          "type": "string"
        }
      ],
      "stateMutability": "view",
      "type": "function"
    },
    {
      "inputs": [
        {
          "internalType": "string",
          "name": "_bannerHash",
          "type": "string"
        },
        {
          "internalType": "string",
          "name": "_description",
          "type": "string"
        },
        {
          "internalType": "string",
          "name": "_clickThru",
          "type": "string"
        }
      ],
      "name": "uploadBanner",
      "outputs": [],
      "stateMutability": "nonpayable",
      "type": "function"
    }
  ],
  "transactionHash": "0x6c5956c188c9014f6fe8e400d42df567887afcab2a0102751072b7f03034e49c",
  "args": [],
  "solcInputHash": "570e4d889233705f467dbad7bcbf8cbd",
  "bytecode": "0x60c0604052600c60808190526b1110d3109a5b1b189bd85c9960a21b60a090815261002d916000919061004f565b5060006001556000600355600060055534801561004957600080fd5b50610123565b82805461005b906100e8565b90600052602060002090601f01602090048101928261007d57600085556100c3565b82601f1061009657805160ff19168380011785556100c3565b828001600101855582156100c3579182015b828111156100c35782518255916020019190600101906100a8565b506100cf9291506100d3565b5090565b5b808211156100cf57600081556001016100d4565b600181811c908216806100fc57607f821691505b6020821081141561011d57634e487b7160e01b600052602260045260246000fd5b50919050565b610cf480620001336000396000f3fe608060405234801561001057600080fd5b50600436106100785760003560e01c806306fdde031461007d57806315ccf70f1461009b5780631bc09567146100c05780632128e0ac146100d75780638f7695ef146100fc578063c177f60f14610120578063f48dd4f114610129578063fd17a53e1461013e575b600080fd5b610085610147565b6040516100929190610aa1565b60405180910390f35b6100ae6100a9366004610a3e565b6101d5565b60405161009296959493929190610bfc565b6100c960055481565b604051908152602001610092565b6100ea6100e5366004610a3e565b61031a565b60405161009296959493929190610b99565b61010f61010a366004610a3e565b6104f1565b604051610092959493929190610b3f565b6100c960015481565b61013c6101373660046109ba565b6106c1565b005b6100c960035481565b6000805461015490610c46565b80601f016020809104026020016040519081016040528092919081815260200182805461018090610c46565b80156101cd5780601f106101a2576101008083540402835291602001916101cd565b820191906000526020600020905b8154815290600101906020018083116101b057829003601f168201915b505050505081565b600660205260009081526040902080546001820180549192916101f790610c46565b80601f016020809104026020016040519081016040528092919081815260200182805461022390610c46565b80156102705780601f1061024557610100808354040283529160200191610270565b820191906000526020600020905b81548152906001019060200180831161025357829003601f168201915b50505050509080600201805461028590610c46565b80601f01602080910402602001604051908101604052809291908181526020018280546102b190610c46565b80156102fe5780601f106102d3576101008083540402835291602001916102fe565b820191906000526020600020905b8154815290600101906020018083116102e157829003601f168201915b5050505050908060030154908060040154908060050154905086565b6004602052600090815260409020805460018201805491929161033c90610c46565b80601f016020809104026020016040519081016040528092919081815260200182805461036890610c46565b80156103b55780601f1061038a576101008083540402835291602001916103b5565b820191906000526020600020905b81548152906001019060200180831161039857829003601f168201915b5050505050908060020180546103ca90610c46565b80601f01602080910402602001604051908101604052809291908181526020018280546103f690610c46565b80156104435780601f1061041857610100808354040283529160200191610443565b820191906000526020600020905b81548152906001019060200180831161042657829003601f168201915b50505050509080600301805461045890610c46565b80601f016020809104026020016040519081016040528092919081815260200182805461048490610c46565b80156104d15780601f106104a6576101008083540402835291602001916104d1565b820191906000526020600020905b8154815290600101906020018083116104b457829003601f168201915b5050505060048301546005909301549192916001600160a01b0316905086565b6002602052600090815260409020805460018201805491929161051390610c46565b80601f016020809104026020016040519081016040528092919081815260200182805461053f90610c46565b801561058c5780601f106105615761010080835404028352916020019161058c565b820191906000526020600020905b81548152906001019060200180831161056f57829003601f168201915b5050505050908060020180546105a190610c46565b80601f01602080910402602001604051908101604052809291908181526020018280546105cd90610c46565b801561061a5780601f106105ef5761010080835404028352916020019161061a565b820191906000526020600020905b8154815290600101906020018083116105fd57829003601f168201915b50505050509080600301805461062f90610c46565b80601f016020809104026020016040519081016040528092919081815260200182805461065b90610c46565b80156106a85780601f1061067d576101008083540402835291602001916106a8565b820191906000526020600020905b81548152906001019060200180831161068b57829003601f168201915b505050600490930154919250506001600160a01b031685565b600082511161070e5760405162461bcd60e51b815260206004820152601460248201527311195cd8dc9a5c1d1a5bdb881c995c5d5a5c995960621b60448201526064015b60405180910390fd5b60008351116107555760405162461bcd60e51b815260206004820152601360248201527210985b9b995c92185cda081c995c5d5a5c9959606a1b6044820152606401610705565b3361078f5760405162461bcd60e51b815260206004820152600a6024820152692130b21029b2b73232b960b11b6044820152606401610705565b6001805490600061079f83610c81565b90915550506040805160a081018252600180548083526020808401888152848601889052606085018790523360808601526000928352600282529490912083518155935180519394859490936107fa9390850192019061089a565b506040820151805161081691600284019160209091019061089a565b506060820151805161083291600384019160209091019061089a565b5060809190910151600490910180546001600160a01b0319166001600160a01b039092169190911790556040517ff5ed64965753f2409fb10f8073dca2b2de4e1e4138e042ffe3af12903f55702b9061088c908390610abb565b60405180910390a150505050565b8280546108a690610c46565b90600052602060002090601f0160209004810192826108c8576000855561090e565b82601f106108e157805160ff191683800117855561090e565b8280016001018555821561090e579182015b8281111561090e5782518255916020019190600101906108f3565b5061091a92915061091e565b5090565b5b8082111561091a576000815560010161091f565b600082601f830112610943578081fd5b813567ffffffffffffffff8082111561095e5761095e610ca8565b604051601f8301601f19908116603f0116810190828211818310171561098657610986610ca8565b8160405283815286602085880101111561099e578485fd5b8360208701602083013792830160200193909352509392505050565b6000806000606084860312156109ce578283fd5b833567ffffffffffffffff808211156109e5578485fd5b6109f187838801610933565b94506020860135915080821115610a06578384fd5b610a1287838801610933565b93506040860135915080821115610a27578283fd5b50610a3486828701610933565b9150509250925092565b600060208284031215610a4f578081fd5b5035919050565b60008151808452815b81811015610a7b57602081850181015186830182015201610a5f565b81811115610a8c5782602083870101525b50601f01601f19169290920160200192915050565b602081526000610ab46020830184610a56565b9392505050565b60208152815160208201526000602083015160a06040840152610ae160c0840182610a56565b90506040840151601f1980858403016060860152610aff8383610a56565b9250606086015191508085840301608086015250610b1d8282610a56565b608095909501516001600160a01b031660a09490940193909352509192915050565b85815260a060208201526000610b5860a0830187610a56565b8281036040840152610b6a8187610a56565b90508281036060840152610b7e8186610a56565b91505060018060a01b03831660808301529695505050505050565b86815260c060208201526000610bb260c0830188610a56565b8281036040840152610bc48188610a56565b90508281036060840152610bd88187610a56565b608084019590955250506001600160a01b039190911660a090910152949350505050565b86815260c060208201526000610c1560c0830188610a56565b8281036040840152610c278188610a56565b60608401969096525050608081019290925260a0909101529392505050565b600181811c90821680610c5a57607f821691505b60208210811415610c7b57634e487b7160e01b600052602260045260246000fd5b50919050565b6000600019821415610ca157634e487b7160e01b81526011600452602481fd5b5060010190565b634e487b7160e01b600052604160045260246000fdfea2646970667358221220df3eff9aa2d8fae5693d1f5465efcb01b427c40fc65b33e0ee0b26665dce8b2c64736f6c63430008040033",
  "devdoc": {
    "kind": "dev",
    "methods": {},
    "version": 1
  },
  "userdoc": {
    "kind": "user",
    "methods": {},
    "version": 1
  },
  "storageLayout": {
    "storage": [
      {
        "astId": 5,
        "contract": "contracts/DCLBillboard.sol:DCLBillboard",
        "label": "name",
        "offset": 0,
        "slot": "0",
        "type": "t_string_storage"
      },
      {
        "astId": 8,
        "contract": "contracts/DCLBillboard.sol:DCLBillboard",
        "label": "bannerCount",
        "offset": 0,
        "slot": "1",
        "type": "t_uint256"
      },
      {
        "astId": 13,
        "contract": "contracts/DCLBillboard.sol:DCLBillboard",
        "label": "banners",
        "offset": 0,
        "slot": "2",
        "type": "t_mapping(t_uint256,t_struct(Banner)24_storage)"
      },
      {
        "astId": 32,
        "contract": "contracts/DCLBillboard.sol:DCLBillboard",
        "label": "billboardCount",
        "offset": 0,
        "slot": "3",
        "type": "t_uint256"
      },
      {
        "astId": 37,
        "contract": "contracts/DCLBillboard.sol:DCLBillboard",
        "label": "billboards",
        "offset": 0,
        "slot": "4",
        "type": "t_mapping(t_uint256,t_struct(Billboard)50_storage)"
      },
      {
        "astId": 58,
        "contract": "contracts/DCLBillboard.sol:DCLBillboard",
        "label": "flightCount",
        "offset": 0,
        "slot": "5",
        "type": "t_uint256"
      },
      {
        "astId": 63,
        "contract": "contracts/DCLBillboard.sol:DCLBillboard",
        "label": "flights",
        "offset": 0,
        "slot": "6",
        "type": "t_mapping(t_uint256,t_struct(Flight)76_storage)"
      }
    ],
    "types": {
      "t_address_payable": {
        "encoding": "inplace",
        "label": "address payable",
        "numberOfBytes": "20"
      },
      "t_mapping(t_uint256,t_struct(Banner)24_storage)": {
        "encoding": "mapping",
        "key": "t_uint256",
        "label": "mapping(uint256 => struct DCLBillboard.Banner)",
        "numberOfBytes": "32",
        "value": "t_struct(Banner)24_storage"
      },
      "t_mapping(t_uint256,t_struct(Billboard)50_storage)": {
        "encoding": "mapping",
        "key": "t_uint256",
        "label": "mapping(uint256 => struct DCLBillboard.Billboard)",
        "numberOfBytes": "32",
        "value": "t_struct(Billboard)50_storage"
      },
      "t_mapping(t_uint256,t_struct(Flight)76_storage)": {
        "encoding": "mapping",
        "key": "t_uint256",
        "label": "mapping(uint256 => struct DCLBillboard.Flight)",
        "numberOfBytes": "32",
        "value": "t_struct(Flight)76_storage"
      },
      "t_string_storage": {
        "encoding": "bytes",
        "label": "string",
        "numberOfBytes": "32"
      },
      "t_struct(Banner)24_storage": {
        "encoding": "inplace",
        "label": "struct DCLBillboard.Banner",
        "members": [
          {
            "astId": 15,
            "contract": "contracts/DCLBillboard.sol:DCLBillboard",
            "label": "id",
            "offset": 0,
            "slot": "0",
            "type": "t_uint256"
          },
          {
            "astId": 17,
            "contract": "contracts/DCLBillboard.sol:DCLBillboard",
            "label": "hash",
            "offset": 0,
            "slot": "1",
            "type": "t_string_storage"
          },
          {
            "astId": 19,
            "contract": "contracts/DCLBillboard.sol:DCLBillboard",
            "label": "description",
            "offset": 0,
            "slot": "2",
            "type": "t_string_storage"
          },
          {
            "astId": 21,
            "contract": "contracts/DCLBillboard.sol:DCLBillboard",
            "label": "clickThru",
            "offset": 0,
            "slot": "3",
            "type": "t_string_storage"
          },
          {
            "astId": 23,
            "contract": "contracts/DCLBillboard.sol:DCLBillboard",
            "label": "owner",
            "offset": 0,
            "slot": "4",
            "type": "t_address_payable"
          }
        ],
        "numberOfBytes": "160"
      },
      "t_struct(Billboard)50_storage": {
        "encoding": "inplace",
        "label": "struct DCLBillboard.Billboard",
        "members": [
          {
            "astId": 39,
            "contract": "contracts/DCLBillboard.sol:DCLBillboard",
            "label": "id",
            "offset": 0,
            "slot": "0",
            "type": "t_uint256"
          },
          {
            "astId": 41,
            "contract": "contracts/DCLBillboard.sol:DCLBillboard",
            "label": "position",
            "offset": 0,
            "slot": "1",
            "type": "t_string_storage"
          },
          {
            "astId": 43,
            "contract": "contracts/DCLBillboard.sol:DCLBillboard",
            "label": "description",
            "offset": 0,
            "slot": "2",
            "type": "t_string_storage"
          },
          {
            "astId": 45,
            "contract": "contracts/DCLBillboard.sol:DCLBillboard",
            "label": "realm",
            "offset": 0,
            "slot": "3",
            "type": "t_string_storage"
          },
          {
            "astId": 47,
            "contract": "contracts/DCLBillboard.sol:DCLBillboard",
            "label": "rate",
            "offset": 0,
            "slot": "4",
            "type": "t_uint256"
          },
          {
            "astId": 49,
            "contract": "contracts/DCLBillboard.sol:DCLBillboard",
            "label": "owner",
            "offset": 0,
            "slot": "5",
            "type": "t_address_payable"
          }
        ],
        "numberOfBytes": "192"
      },
      "t_struct(Flight)76_storage": {
        "encoding": "inplace",
        "label": "struct DCLBillboard.Flight",
        "members": [
          {
            "astId": 65,
            "contract": "contracts/DCLBillboard.sol:DCLBillboard",
            "label": "id",
            "offset": 0,
            "slot": "0",
            "type": "t_uint256"
          },
          {
            "astId": 67,
            "contract": "contracts/DCLBillboard.sol:DCLBillboard",
            "label": "parcel",
            "offset": 0,
            "slot": "1",
            "type": "t_string_storage"
          },
          {
            "astId": 69,
            "contract": "contracts/DCLBillboard.sol:DCLBillboard",
            "label": "description",
            "offset": 0,
            "slot": "2",
            "type": "t_string_storage"
          },
          {
            "astId": 71,
            "contract": "contracts/DCLBillboard.sol:DCLBillboard",
            "label": "rate",
            "offset": 0,
            "slot": "3",
            "type": "t_uint256"
          },
          {
            "astId": 73,
            "contract": "contracts/DCLBillboard.sol:DCLBillboard",
            "label": "startDate",
            "offset": 0,
            "slot": "4",
            "type": "t_uint256"
          },
          {
            "astId": 75,
            "contract": "contracts/DCLBillboard.sol:DCLBillboard",
            "label": "endDate",
            "offset": 0,
            "slot": "5",
            "type": "t_uint256"
          }
        ],
        "numberOfBytes": "192"
      },
      "t_uint256": {
        "encoding": "inplace",
        "label": "uint256",
        "numberOfBytes": "32"
      }
    }
  }
}